:100000000C9446000C9458000C9458000C94580022
:100010000C9458000C9458000C9458000C94580000
:100020000C9458000C9458000C9458000C945800F0
:100030000C9458000C9458000C9458000C945800E0
:100040000C9458000C9458000C9458000C945800D0
:100050000C9458000C9458000C9458000C945800C0
:100060000C9458000C9458000C9458000C945800B0
:100070000C9458000C9458000C9458000C945800A0
:100080000C9458000C9458000C94580011241FBE76
:10009000CFEFD0E1DEBFCDBF21E0A0E0B1E001C0F5
:1000A0001D92A430B207E1F70E9489000C94C400AD
:1000B0000C94000040B32091020130910301220F03
:1000C000331F306E842F817090E0282B392B3093B2
:1000D00003012093020181E02115304F09F080E0F7
:1000E000089540B32091000130910101220F331F88
:1000F000306E41FB882780F990E0282B392B309314
:1001000001012093000181E02115304F09F080E0CA
:1001100008958FEF87BB11BA1BC060B380910001B7
:1001200090910101880F991F906E61FB442740F95F
:1001300050E0842B952B9093010180930001811551
:10014000904FF1F08FE39FE10197F1F700C00000BD
:1001500060B38091020190910301880F991F906E06
:10016000262F217030E0822B932B909303018093F4
:1001700002018115904F89F688B38F5F88BBCDCF80
:0C01800088B3815088BBDECFF894FFCF1D
:00000001FF
