:100000000C9446000C9450000C9450000C9450003A
:100010000C9450000C9450000C9450000C94500020
:100020000C9450000C9450000C9450000C94500010
:100030000C9450000C9450000C9450000C94500000
:100040000C9450000C9450000C9450000C945000F0
:100050000C9450000C9450000C9450000C945000E0
:100060000C9450000C9450000C9450000C945000D0
:100070000C9450000C9450000C9450000C945000C0
:100080000C9450000C9450000C94500011241FBE8E
:10009000CFEFD0E1DEBFCDBF0E9452000C946500CF
:1000A0000C9400008FEF8ABB90EF97BB11BA82BB14
:1000B0008BBB40E130E220E390E418BA48BB38BB88
:0E00C00028BB98BB80B38BBBF8CFF894FFCF62
:00000001FF
