:100000000C9446000C9465000C9465000C946500FB
:100010000C9465000C9465000C9465000C946500CC
:100020000C9465000C9465000C9465000C946500BC
:100030000C9465000C9465000C9465000C946500AC
:100040000C9465000C9465000C9465000C9465009C
:100050000C9465000C9465000C9465000C9465008C
:100060000C9465000C9465000C9465000C9465007C
:100070000C9465000C9465000C9465000C9465006C
:100080000C9465000C9465000C94650011241FBE4F
:10009000CFEFD0E1DEBFCDBF11E0A0E0B1E0E2E301
:1000A000F3E000E00BBF02C007900D92AC30B10747
:1000B000D9F721E0ACE0B1E001C01D92A132B20756
:1000C000E1F70E940C010C9497010C940000482F5A
:1000D000E82FF0E099B3EE0FFF1FE45FFE4F2081A1
:1000E0003181220F331F306E892F90E002C0959529
:1000F00087954A95E2F781709927282B392B318310
:10010000208381E02115304F09F080E00895CF93DE
:10011000DF93EC019C01ADECBCEC0E948801AC01CA
:100120005695479556954795569547959A01220FAE
:10013000331FCA01880F991F880F991F880F991FB5
:10014000820F931FFE01E81BF90BE050FF4F8081E7
:1001500080931C019A010E94880196958795969537
:100160008795969587959C01220F331F880F991FBD
:10017000880F991F880F991F820F931F481B590BD7
:10018000FA01E050FF4F808180931D019E0136955A
:10019000279536952795ABE7B4E10E948801AC011D
:1001A000569547959A01ADECBCEC0E948801969556
:1001B000879596958795969587959C01220F331F75
:1001C000880F991F880F991F880F991F820F931FFF
:1001D000481B590BFA01E050FF4F808180931F01AB
:1001E0008FEF80931E01C83E93E0D90770F480938F
:1001F0002001C436D10530F480931F012A9710F4F2
:1002000080931D01DF91CF9108958091010180932A
:100210002001DF91CF91089580EF87BBC0E0D0E04F
:10022000FF24FA9490EFA92E01E010E020E1B22E15
:1002300030E2C32E40E3D42E50E4E52E8FE99FE058
:100240000197F1F700C000001ABAFBBAA8BAECE0B7
:10025000F1E020E030E099B340815181440F551F17
:10026000892F90E0022E02C0959587950A94E2F7B7
:1002700081709927842B952B906E81939193811592
:10028000904F49F4C801022E02C0880F991F0A94AA
:10029000E2F7C80FD91F2F5F3F4F28303105D9F63D
:1002A00018BAC11584E0D80710F0C0E0D0E0CE0144
:1002B0000E948700FABA80911C018BBB18BA8FE9A3
:1002C0009FE00197F1F700C0000080911D018BBBFA
:1002D000B8BA8FE99FE00197F1F700C00000809164
:1002E0001E018BBBC8BA8FE99FE00197F1F700C0F0
:1002F000000080911F018BBBD8BA8FE99FE0019766
:10030000F1F700C00000809120018BBBE8BA96CFC6
:10031000A29FB001B39FC001A39F700D811D112446
:10032000911DB29F700D811D1124911D0895F894A7
:02033000FFCFFD
:0C033200C0F9A4B0999282F880907FFF7F
:00000001FF
