:100000000C9446000C9465000C9465000C946500FB
:100010000C9465000C9465000C9465000C946500CC
:100020000C9465000C9465000C9465000C946500BC
:100030000C9465000C9465000C9465000C946500AC
:100040000C9465000C9465000C9465000C9465009C
:100050000C9465000C9465000C9465000C9465008C
:100060000C9465000C9465000C9465000C9465007C
:100070000C9465000C9465000C9465000C9465006C
:100080000C9465000C9465000C94650011241FBE4F
:10009000CFEFD0E1DEBFCDBF11E0A0E0B1E0E6E4FC
:1000A000F3E000E00BBF02C007900D92AC30B10747
:1000B000D9F721E0ACE0B1E001C01D92A132B20756
:1000C000E1F70E9435010C94A1010C940000482F27
:1000D000E82FF0E099B3EE0FFF1FE45FFE4F2081A1
:1000E0003181220F331F306E892F90E002C0959529
:1000F00087954A95E2F781709927282B392B318310
:10010000208381E02115304F09F080E00895CF93DE
:10011000DF93EC019C01ADECBCEC0E949201AC01C0
:100120005695479556954795569547959A01220FAE
:10013000331FCA01880F991F880F991F880F991FB5
:10014000820F931FFE01E81BF90BE050FF4F8081E7
:1001500080931C019A010E9492019695879596952D
:100160008795969587959C01220F331F880F991FBD
:10017000880F991F880F991F820F931F481B590BD7
:10018000FA01E050FF4F808180931D019E0136955A
:10019000279536952795ABE7B4E10E949201AC0113
:1001A000569547959A01ADECBCEC0E94920196954C
:1001B000879596958795969587959C01220F331F75
:1001C000880F991F880F991F880F991F820F931FFF
:1001D000481B590BFA01E050FF4F808180931F01AB
:1001E0009E01369527953695279536952795A5EC4A
:1001F000B0E20E949201AC01529542954F704527A2
:100200005F7045279A01ADECBCEC0E949201969577
:10021000879596958795969587959C01220F331F14
:10022000880F991F880F991F880F991F820F931F9E
:10023000481B590BFA01E050FF4F80818093200149
:100240008FEF80931E01C83E93E0D90758F4809346
:100250002001C436D10530F480931F012A9710F491
:1002600080931D01DF91CF9108958FEF82B913B86C
:1002700080EF87BBC0E0D0E0FF24FA9490EFE92E36
:1002800001E010E08FE99FE00197F1F700C0000066
:100290001ABAFBBAE8BAECE0F1E020E030E099B33A
:1002A00040815181440F551F506E892F90E0022EDE
:1002B00002C0959587950A94E2F781709927842B5F
:1002C000952B819391938115904F49F4C801022E8B
:1002D00002C0880F991F0A94E2F7C80FD91F2F5F39
:1002E0003F4F28303105D9F618BAC115B4E0DB0705
:1002F00010F0CF5FD340CE010E948700FABAECE144
:10030000F1E080E091919BBB982F9295907F98BBF4
:10031000AFE9BFE01197F1F700C000008F5F8530B3
:1003200089F7B0CFA29FB001B39FC001A39F700D0A
:10033000811D1124911DB29F700D811D1124911DED
:060340000895F894FFCFC0
:0C034600C0F9A4B0999282F88098FF7F63
:00000001FF
