:100000000C9446000C9465000C9465000C946500FB
:100010000C9465000C9465000C9465000C946500CC
:100020000C9465000C9465000C9465000C946500BC
:100030000C9465000C9465000C9465000C946500AC
:100040000C94DD000C9465000C9465000C94650024
:100050000C9465000C9465000C9465000C9465008C
:100060000C9465000C9465000C9465000C9465007C
:100070000C9465000C9465000C9465000C9465006C
:100080000C9465000C9465000C94650011241FBE4F
:10009000CFEFD0E1DEBFCDBF11E0A0E0B1E0ECE7F3
:1000A000F5E000E00BBF02C007900D92AC30B10745
:1000B000D9F721E0ACE0B1E001C01D92AB32B2074C
:1000C000E1F70E943E020C94BC020C940000809167
:1000D0001001882329F080910F01882379F0089579
:1000E00080910F01811114C080910D0190910E013A
:1000F000019690930E0180930D01089580910D015A
:1001000090910E01029690930E0180930D01089537
:1001100080910D0190910E01049690930E018093B1
:100120000D01089580911001882329F080910F011D
:10013000882379F0089580910F01811114C0809176
:100140000D0190910E01019790930E0180930D0186
:10015000089580910D0190910E01029790930E01E8
:1001600080930D01089580910D0190910E010497E7
:1001700090930E0180930D010895482FE82FF0E031
:1001800099B3EE0FFF1FEA5EFE4F20813181220FEF
:10019000331F306E892F90E002C0959587954A9560
:1001A000E2F781709927282B392B3183208381E056
:1001B0002115304F09F080E008951F920F920FB67D
:1001C0000F9211240BB60F922F933F934F935F938F
:1001D0006F937F938F939F93AF93BF93CF93DF934F
:1001E000EF93FF931ABA8FEF8BBB80EF88BB3AE196
:1001F0003A95F1F700C089B32091160130911701AB
:10020000220F331F306E482F417050E0242B352BC6
:1002100030931701209316012115304F09F483C044
:100220002091100139B38091180190911901880F24
:10023000991F906E31FB662760F970E0862B972B33
:1002400090931901809318018115904F09F464C0AF
:1002500080910F01213009F45AC0813009F46FC038
:10026000211104C0811102C0109211018FEF88BBCF
:100270008ABB809111018FB9779BFECF8FB180939C
:100280000C011E981F9A929A92981F981E9A20917C
:10029000150120931401C0911301C09312018091A4
:1002A0000C01382F3370309315018C7090E09595C8
:1002B000879595958795D82F80931301231729F05B
:1002C000213009F440C02230E9F0CD1731F0C130BF
:1002D00089F1C23011F4D330E1F1FF91EF91DF9158
:1002E000CF91BF91AF919F918F917F916F915F91CE
:1002F0004F913F912F910F900BBE0F900FBE0F901B
:100300001F901895333009F70E949200DECF81309C
:1003100019F120931101AACF90910F0181E0892753
:1003200080930F0197CF2091100191E0292720930E
:10033000100178CFD33089F60E946700CECF82E0DB
:100340008093110193CF333009F0BFCF0E94670033
:10035000BCCF0E949200C1CF83E08093110186CF71
:1003600087B7816087BF83B7856083BF80E58DB91C
:100370000895CF93DF93EC019C01ADECBCEC0E949F
:10038000AD02AC01569547955695479556954795BC
:100390009A01220F331FCA01880F991F880F991FD6
:1003A000880F991F820F931FFE01E81BF90BE05085
:1003B000FF4F8081809326019A010E94AD0296959D
:1003C000879596958795969587959C01220F331F63
:1003D000880F991F880F991F880F991F820F931FED
:1003E000481B590BFA01E050FF4F80818093270191
:1003F0009E013695279536952795ABE7B4E10E9487
:10040000AD02AC01569547959A01ADECBCEC0E944B
:10041000AD029695879596958795969587959C01BB
:10042000220F331F880F991F880F991F880F991F5C
:10043000820F931F481B590BFA01E050FF4F808138
:10044000809329018FEF80932801C83E93E0D9075C
:1004500070F480932A01C436D10530F480932901C9
:100460002A9710F480932701DF91CF91089580910E
:10047000010180932A01DF91CF91089587B3806FA6
:1004800087BB87B3876087BB8FEF8ABB81BB92B185
:1004900082B91F9A1E9887B7816087BF83B785602E
:1004A00083BF80E58DB9789480EF88BBFF24FA94F0
:1004B00000E110E2D0E3C0E48FE99FE00197F1F79B
:1004C00000C0000080910D0190910E01811524E083
:1004D000920730F010920E0110920D0180E090E032
:1004E0000E94B901FABA18BA8FE891E00197F1F7C2
:1004F00000C00000809126018BBB18BA8FE99FE0F5
:100500000197F1F700C00000809127018BBB08BB69
:100510008FE99FE00197F1F700C00000809128016A
:100520008BBB18BB8FE99FE00197F1F700C000007B
:10053000809129018BBBD8BB8FE99FE00197F1F730
:1005400000C0000080912A018BBBC8BB8FE891E0FE
:100550000197F1F700C00000AFCFA29FB001B39F99
:10056000C001A39F700D811D1124911DB29F700DBC
:0C057000811D1124911D0895F894FFCF07
:0C057C00C0F9A4B0999282F880907FFF33
:00000001FF
