:100000000C946E000C948D000C948D000C948D005B
:100010000C948D000C948D000C948D000C948D002C
:100020000C948D000C948D000C948D000C948D001C
:100030000C948D000C948D000C948D000C948D000C
:100040000C9428030C948D000C948D000C948D005E
:100050000C948D000C948D000C948D000C948D00EC
:100060000C948D000C948D000C948D000C948D00DC
:100070000C948D000C948D000C948D000C948D00CC
:100080000C948D000C948D000C948D00470144015C
:1000900041013E013B013801320135012F014A0186
:1000A0004701440141013E013B0138013201350164
:1000B0002F014A014701440141013E013B01380142
:1000C000320135012F014A014701440141013E013E
:1000D0003B013801320135012F014A0111241FBEB5
:1000E000CFEFD0E1DEBFCDBF11E0A0E0B1E0EAEE9E
:1000F000F7E000E00BBF02C007900D92A230B107FD
:10010000D9F721E0A2E0B1E001C01D92A433B2070B
:10011000E1F70E94AC030C94F3030C9400008FEF02
:100120008ABBC49A88B38F7988BBC69A80EF87BB95
:1001300087B3876087BBEFE0F1E0119211921192D3
:10014000119281E0E332F807C1F782B1806C82B985
:100150001F9A1E98089587B7816087BF83B786600E
:1001600083BF089580E58DB90895823009F44AC0AF
:1001700090F18330A9F0843009F090C088B38F7873
:1001800088BB8FE891E00197F1F700C00000E09193
:100190001F01F0912001EA30F10508F45CC00895D8
:1001A000C49A88B38F7988BB8FE891E00197F1F703
:1001B00000C0000080910B0190910C010A97F8F0AB
:1001C000E0911B01F0911C01EA30F10540F7EA5B78
:1001D000FF4F0C94DB03813009F05FC0C69A88B3EF
:1001E0008F7C88BB8FE891E00197F1F700C0000099
:1001F00080910B0190910C01883E934000F58FEFA8
:100200008BBB089588B3806388BBC6988FE891E064
:100210000197F1F700C0000080910B0190910C0153
:100220008436910560F3E0911701F0911801EA30EE
:10023000F10508F0B4CFE05BFF4F0C94DB03E091D5
:100240001301F0911401EA30F10508F0A8CFE65A45
:10025000FF4F0C94DB03EC59FF4F0C94DB0380E859
:100260008BBB089582E88BBB089588EF8BBB089504
:1002700082E98BBB089589E98BBB089580EB8BBB2A
:10028000089584EA8BBB089589EF8BBB089580ECB9
:100290008BBB089588E98BBB08950895089589B3B1
:1002A0008095813079F0823061F42091080191E0ED
:1002B000922790930801909102018927809302016F
:1002C00008950895909109019827909309019091BC
:1002D000020189278093020108954F925F926F92E5
:1002E0007F928F929F92AF92BF92CF92DF92EF92C6
:1002F000FF9240910B0150910C01CA019450803142
:10030000934208F0BDC053704F5F5F4F50930C0194
:1003100040930B019A01ADECBCEC0E94E4036C012C
:10032000D694C794D694C794D694C7949601220FB6
:10033000331FC601880F991F880F991F880F991FB7
:10034000820F931F2A01481A590A612C712C9601B9
:100350000E94E4039695879596958795969587953F
:100360009C01220F331F880F991F880F991F880F38
:10037000991F820F931FC81AD90AE12CF12C9A01F8
:100380003695279536952795ABE7B4E10E94E403AF
:100390004C01969487949401ADECBCEC0E94E4036C
:1003A0009695879596958795969587959C01220FAA
:1003B000331F880F991F880F991F880F991F820F6D
:1003C000931F881A990AA12CB12C9A01369527956A
:1003D0003695279536952795A5ECB0E20E94E40363
:1003E000AC01529542954F7045275F7045279A01A1
:1003F000ADECBCEC0E94E4039695879596958795A5
:10040000969587959C01220F331F880F991F880F9F
:10041000991F880F991F820F931F9A01281B390B70
:10042000C901A0E0B0E040921F015092200160920B
:10043000210170922201C0921B01D0921C01E09216
:100440001D01F0921E018092170190921801A09256
:100450001901B0921A018093130190931401A09393
:100460001501B0931601FF90EF90DF90CF90BF90F1
:10047000AF909F908F907F906F905F904F90089576
:10048000413137E2530708F445CF8FEF93E0909363
:100490000C0180930B0181E090E0A0E0B0E0812CA2
:1004A000912C540122E0C22ED12CE12CF12C33E00E
:1004B000432E512C612C712CB6CF40910E013091FE
:1004C0000D0180910001282F237020930E018C7064
:1004D00090E09595879595958795982F80930D0138
:1004E000421721F04130D1F1423051F0391739F043
:1004F0003130F1F0323019F4933009F446C00895E8
:100500002330A1F78091090120910801482F42234F
:1005100009F052C040910B0150910C01882309F45D
:100520006DC04250510950930C0140930B01DECF36
:10053000933029F78091090190910801282F2923F0
:10054000C9F5882309F44EC080910B0190910C01EC
:10055000029690930C0180930B010895233031F69D
:100560008091090120910801482F422329F54091EB
:100570000B0150910C01882309F449C04E5F5F4F75
:1005800050930C0140930B01B1CF809109019091E0
:100590000801282F292371F4811110C0911118C06E
:1005A00080910B0190910C01019790930C01809325
:1005B0000B01089500000895000098CF80910B0171
:1005C00090910C01029790930C0180930B01089578
:1005D00080910B0190910C01049790930C018093F2
:1005E0000B0108959923E1F080910B0190910C018A
:1005F000049690930C0180930B0108952223D1F06F
:100600004450510950930C0140930B016FCF2223AA
:10061000C1F04C5F5F4F50930C0140930B0166CFCC
:1006200080910B0190910C01019690930C018093A5
:100630000B0108954150510950930C0140930B0157
:1006400055CF4F5F5F4F50930C0140930B014ECF3E
:100650001F920F920FB60F9211240BB60F922F9389
:100660003F934F935F936F937F938F939F93AF933A
:10067000BF93EF93FF931ABA8FEF8BBB88B380675A
:1006800088BB8AE18A95F1F700C089B38F3F09F4EE
:1006900050C080910101811150C089B320910601A1
:1006A0003091070190E08217930709F44BC089B39A
:1006B00090E02817390741F00E944F0181E090E057
:1006C000909305018093040189B390E09093070112
:1006D000809306018FEF8ABBC49A88B38F7988BB59
:1006E000C69A1F981E9A00000000809102018FB9DF
:1006F0008FB180930001779BFECF81E0809303014F
:100700001F9A1E98C09AC0980E945D02FF91EF91B7
:10071000BF91AF919F918F917F916F915F914F9119
:100720003F912F910F900BBE0F900FBE0F901F9017
:10073000189581E080930101CDCF0E944F01109266
:100740000101C2CF8091040190910501019690931F
:10075000050180930401B8CF0E948F0087B78160A4
:1007600087BF83B7866083BF80E58DB978948FEFAC
:100770008ABBC49A88B38F7988BBC69ADFEF0FE033
:1007800010E0C1E087EC90E00197F1F700C00000B5
:100790008C2F0E94B50087E092E00197F1F700C02E
:1007A0000000DBBBCF5FC53069F70150110949F785
:1007B0000E946D01E4CFEE0FFF1F0024001C0BBE52
:1007C0000790F691E02D0994A29FB001B39FC0015C
:1007D000A39F700D811D1124911DB29F700D811D6D
:0A07E0001124911D0895F894FFCF35
:0207EA001301F9
:00000001FF
